{
  "_format": "hh3-artifact-1",
  "contractName": "Marketplace",
  "sourceName": "contracts/Marketplace.sol",
  "abi": [
    {
      "anonymous": false,
      "inputs": [
        {
          "indexed": true,
          "internalType": "uint256",
          "name": "orderId",
          "type": "uint256"
        },
        {
          "indexed": true,
          "internalType": "uint256",
          "name": "productId",
          "type": "uint256"
        },
        {
          "indexed": true,
          "internalType": "address",
          "name": "buyer",
          "type": "address"
        }
      ],
      "name": "DeliveryConfirmed",
      "type": "event"
    },
    {
      "anonymous": false,
      "inputs": [
        {
          "indexed": true,
          "internalType": "uint256",
          "name": "orderId",
          "type": "uint256"
        },
        {
          "indexed": true,
          "internalType": "uint256",
          "name": "productId",
          "type": "uint256"
        },
        {
          "indexed": true,
          "internalType": "address",
          "name": "buyer",
          "type": "address"
        },
        {
          "indexed": false,
          "internalType": "uint256",
          "name": "amount",
          "type": "uint256"
        }
      ],
      "name": "OrderCreated",
      "type": "event"
    },
    {
      "anonymous": false,
      "inputs": [
        {
          "indexed": true,
          "internalType": "uint256",
          "name": "productId",
          "type": "uint256"
        },
        {
          "indexed": true,
          "internalType": "uint256",
          "name": "storeId",
          "type": "uint256"
        },
        {
          "indexed": true,
          "internalType": "address",
          "name": "seller",
          "type": "address"
        },
        {
          "indexed": false,
          "internalType": "uint256",
          "name": "price",
          "type": "uint256"
        },
        {
          "indexed": false,
          "internalType": "uint256",
          "name": "stock",
          "type": "uint256"
        },
        {
          "indexed": false,
          "internalType": "string",
          "name": "ipfsHash",
          "type": "string"
        }
      ],
      "name": "ProductAdded",
      "type": "event"
    },
    {
      "anonymous": false,
      "inputs": [
        {
          "indexed": true,
          "internalType": "uint256",
          "name": "reviewId",
          "type": "uint256"
        },
        {
          "indexed": true,
          "internalType": "uint256",
          "name": "productId",
          "type": "uint256"
        },
        {
          "indexed": true,
          "internalType": "address",
          "name": "reviewer",
          "type": "address"
        },
        {
          "indexed": false,
          "internalType": "uint8",
          "name": "rating",
          "type": "uint8"
        },
        {
          "indexed": false,
          "internalType": "string",
          "name": "ipfsHash",
          "type": "string"
        }
      ],
      "name": "ReviewSubmitted",
      "type": "event"
    },
    {
      "anonymous": false,
      "inputs": [
        {
          "indexed": true,
          "internalType": "uint256",
          "name": "storeId",
          "type": "uint256"
        },
        {
          "indexed": true,
          "internalType": "address",
          "name": "owner",
          "type": "address"
        },
        {
          "indexed": false,
          "internalType": "string",
          "name": "name",
          "type": "string"
        },
        {
          "indexed": false,
          "internalType": "string",
          "name": "ipfsHash",
          "type": "string"
        }
      ],
      "name": "StoreCreated",
      "type": "event"
    },
    {
      "inputs": [
        {
          "internalType": "uint256",
          "name": "_price",
          "type": "uint256"
        },
        {
          "internalType": "uint256",
          "name": "_stock",
          "type": "uint256"
        },
        {
          "internalType": "string",
          "name": "_ipfsHash",
          "type": "string"
        }
      ],
      "name": "addProduct",
      "outputs": [],
      "stateMutability": "nonpayable",
      "type": "function"
    },
    {
      "inputs": [
        {
          "internalType": "uint256",
          "name": "_orderId",
          "type": "uint256"
        }
      ],
      "name": "confirmDelivery",
      "outputs": [],
      "stateMutability": "nonpayable",
      "type": "function"
    },
    {
      "inputs": [
        {
          "internalType": "string",
          "name": "_name",
          "type": "string"
        },
        {
          "internalType": "string",
          "name": "_ipfsHash",
          "type": "string"
        }
      ],
      "name": "createStore",
      "outputs": [],
      "stateMutability": "nonpayable",
      "type": "function"
    },
    {
      "inputs": [
        {
          "internalType": "uint256",
          "name": "_productId",
          "type": "uint256"
        }
      ],
      "name": "getAverageRating",
      "outputs": [
        {
          "internalType": "uint256",
          "name": "",
          "type": "uint256"
        }
      ],
      "stateMutability": "view",
      "type": "function"
    },
    {
      "inputs": [
        {
          "internalType": "address",
          "name": "_buyer",
          "type": "address"
        }
      ],
      "name": "getBuyerOrderCount",
      "outputs": [
        {
          "internalType": "uint256",
          "name": "",
          "type": "uint256"
        }
      ],
      "stateMutability": "view",
      "type": "function"
    },
    {
      "inputs": [
        {
          "internalType": "address",
          "name": "_buyer",
          "type": "address"
        }
      ],
      "name": "getOrderIdsByBuyer",
      "outputs": [
        {
          "internalType": "uint256[]",
          "name": "",
          "type": "uint256[]"
        }
      ],
      "stateMutability": "view",
      "type": "function"
    },
    {
      "inputs": [
        {
          "internalType": "address",
          "name": "_seller",
          "type": "address"
        }
      ],
      "name": "getOrderIdsBySeller",
      "outputs": [
        {
          "internalType": "uint256[]",
          "name": "",
          "type": "uint256[]"
        }
      ],
      "stateMutability": "view",
      "type": "function"
    },
    {
      "inputs": [
        {
          "internalType": "uint256",
          "name": "_storeId",
          "type": "uint256"
        }
      ],
      "name": "getProductIdsByStore",
      "outputs": [
        {
          "internalType": "uint256[]",
          "name": "",
          "type": "uint256[]"
        }
      ],
      "stateMutability": "view",
      "type": "function"
    },
    {
      "inputs": [
        {
          "internalType": "uint256",
          "name": "_productId",
          "type": "uint256"
        },
        {
          "internalType": "uint256",
          "name": "_index",
          "type": "uint256"
        }
      ],
      "name": "getReview",
      "outputs": [
        {
          "internalType": "uint256",
          "name": "id",
          "type": "uint256"
        },
        {
          "internalType": "uint256",
          "name": "orderId",
          "type": "uint256"
        },
        {
          "internalType": "uint256",
          "name": "productId",
          "type": "uint256"
        },
        {
          "internalType": "address",
          "name": "reviewer",
          "type": "address"
        },
        {
          "internalType": "uint8",
          "name": "rating",
          "type": "uint8"
        },
        {
          "internalType": "string",
          "name": "ipfsHash",
          "type": "string"
        },
        {
          "internalType": "bool",
          "name": "exists",
          "type": "bool"
        }
      ],
      "stateMutability": "view",
      "type": "function"
    },
    {
      "inputs": [
        {
          "internalType": "uint256",
          "name": "_productId",
          "type": "uint256"
        }
      ],
      "name": "getReviewsCount",
      "outputs": [
        {
          "internalType": "uint256",
          "name": "",
          "type": "uint256"
        }
      ],
      "stateMutability": "view",
      "type": "function"
    },
    {
      "inputs": [
        {
          "internalType": "address",
          "name": "_seller",
          "type": "address"
        }
      ],
      "name": "getSellerOrderCount",
      "outputs": [
        {
          "internalType": "uint256",
          "name": "",
          "type": "uint256"
        }
      ],
      "stateMutability": "view",
      "type": "function"
    },
    {
      "inputs": [
        {
          "internalType": "uint256",
          "name": "_storeId",
          "type": "uint256"
        }
      ],
      "name": "getStoreProductCount",
      "outputs": [
        {
          "internalType": "uint256",
          "name": "",
          "type": "uint256"
        }
      ],
      "stateMutability": "view",
      "type": "function"
    },
    {
      "inputs": [],
      "name": "orderCount",
      "outputs": [
        {
          "internalType": "uint256",
          "name": "",
          "type": "uint256"
        }
      ],
      "stateMutability": "view",
      "type": "function"
    },
    {
      "inputs": [
        {
          "internalType": "address",
          "name": "",
          "type": "address"
        },
        {
          "internalType": "uint256",
          "name": "",
          "type": "uint256"
        }
      ],
      "name": "orderIdsByBuyer",
      "outputs": [
        {
          "internalType": "uint256",
          "name": "",
          "type": "uint256"
        }
      ],
      "stateMutability": "view",
      "type": "function"
    },
    {
      "inputs": [
        {
          "internalType": "address",
          "name": "",
          "type": "address"
        },
        {
          "internalType": "uint256",
          "name": "",
          "type": "uint256"
        }
      ],
      "name": "orderIdsBySeller",
      "outputs": [
        {
          "internalType": "uint256",
          "name": "",
          "type": "uint256"
        }
      ],
      "stateMutability": "view",
      "type": "function"
    },
    {
      "inputs": [
        {
          "internalType": "uint256",
          "name": "",
          "type": "uint256"
        }
      ],
      "name": "orders",
      "outputs": [
        {
          "internalType": "uint256",
          "name": "id",
          "type": "uint256"
        },
        {
          "internalType": "uint256",
          "name": "productId",
          "type": "uint256"
        },
        {
          "internalType": "address",
          "name": "buyer",
          "type": "address"
        },
        {
          "internalType": "uint256",
          "name": "amount",
          "type": "uint256"
        },
        {
          "internalType": "bool",
          "name": "delivered",
          "type": "bool"
        },
        {
          "internalType": "bool",
          "name": "released",
          "type": "bool"
        },
        {
          "internalType": "bool",
          "name": "exists",
          "type": "bool"
        }
      ],
      "stateMutability": "view",
      "type": "function"
    },
    {
      "inputs": [],
      "name": "productCount",
      "outputs": [
        {
          "internalType": "uint256",
          "name": "",
          "type": "uint256"
        }
      ],
      "stateMutability": "view",
      "type": "function"
    },
    {
      "inputs": [
        {
          "internalType": "uint256",
          "name": "",
          "type": "uint256"
        },
        {
          "internalType": "uint256",
          "name": "",
          "type": "uint256"
        }
      ],
      "name": "productIdsByStore",
      "outputs": [
        {
          "internalType": "uint256",
          "name": "",
          "type": "uint256"
        }
      ],
      "stateMutability": "view",
      "type": "function"
    },
    {
      "inputs": [
        {
          "internalType": "uint256",
          "name": "",
          "type": "uint256"
        }
      ],
      "name": "products",
      "outputs": [
        {
          "internalType": "uint256",
          "name": "id",
          "type": "uint256"
        },
        {
          "internalType": "uint256",
          "name": "storeId",
          "type": "uint256"
        },
        {
          "internalType": "address",
          "name": "seller",
          "type": "address"
        },
        {
          "internalType": "uint256",
          "name": "price",
          "type": "uint256"
        },
        {
          "internalType": "uint256",
          "name": "stock",
          "type": "uint256"
        },
        {
          "internalType": "string",
          "name": "ipfsHash",
          "type": "string"
        },
        {
          "internalType": "bool",
          "name": "exists",
          "type": "bool"
        }
      ],
      "stateMutability": "view",
      "type": "function"
    },
    {
      "inputs": [
        {
          "internalType": "uint256",
          "name": "_productId",
          "type": "uint256"
        }
      ],
      "name": "purchase",
      "outputs": [],
      "stateMutability": "payable",
      "type": "function"
    },
    {
      "inputs": [
        {
          "internalType": "uint256",
          "name": "",
          "type": "uint256"
        }
      ],
      "name": "ratingCountByProduct",
      "outputs": [
        {
          "internalType": "uint256",
          "name": "",
          "type": "uint256"
        }
      ],
      "stateMutability": "view",
      "type": "function"
    },
    {
      "inputs": [
        {
          "internalType": "uint256",
          "name": "",
          "type": "uint256"
        }
      ],
      "name": "reviewedOrder",
      "outputs": [
        {
          "internalType": "bool",
          "name": "",
          "type": "bool"
        }
      ],
      "stateMutability": "view",
      "type": "function"
    },
    {
      "inputs": [
        {
          "internalType": "uint256",
          "name": "",
          "type": "uint256"
        },
        {
          "internalType": "uint256",
          "name": "",
          "type": "uint256"
        }
      ],
      "name": "reviewsByProduct",
      "outputs": [
        {
          "internalType": "uint256",
          "name": "id",
          "type": "uint256"
        },
        {
          "internalType": "uint256",
          "name": "orderId",
          "type": "uint256"
        },
        {
          "internalType": "uint256",
          "name": "productId",
          "type": "uint256"
        },
        {
          "internalType": "address",
          "name": "reviewer",
          "type": "address"
        },
        {
          "internalType": "uint8",
          "name": "rating",
          "type": "uint8"
        },
        {
          "internalType": "string",
          "name": "ipfsHash",
          "type": "string"
        },
        {
          "internalType": "bool",
          "name": "exists",
          "type": "bool"
        }
      ],
      "stateMutability": "view",
      "type": "function"
    },
    {
      "inputs": [],
      "name": "storeCount",
      "outputs": [
        {
          "internalType": "uint256",
          "name": "",
          "type": "uint256"
        }
      ],
      "stateMutability": "view",
      "type": "function"
    },
    {
      "inputs": [
        {
          "internalType": "address",
          "name": "",
          "type": "address"
        }
      ],
      "name": "storeOfOwner",
      "outputs": [
        {
          "internalType": "uint256",
          "name": "",
          "type": "uint256"
        }
      ],
      "stateMutability": "view",
      "type": "function"
    },
    {
      "inputs": [
        {
          "internalType": "uint256",
          "name": "",
          "type": "uint256"
        }
      ],
      "name": "stores",
      "outputs": [
        {
          "internalType": "uint256",
          "name": "id",
          "type": "uint256"
        },
        {
          "internalType": "address",
          "name": "owner",
          "type": "address"
        },
        {
          "internalType": "string",
          "name": "name",
          "type": "string"
        },
        {
          "internalType": "string",
          "name": "ipfsHash",
          "type": "string"
        },
        {
          "internalType": "bool",
          "name": "exists",
          "type": "bool"
        }
      ],
      "stateMutability": "view",
      "type": "function"
    },
    {
      "inputs": [
        {
          "internalType": "uint256",
          "name": "_orderId",
          "type": "uint256"
        },
        {
          "internalType": "uint8",
          "name": "_rating",
          "type": "uint8"
        },
        {
          "internalType": "string",
          "name": "_ipfsHash",
          "type": "string"
        }
      ],
      "name": "submitReview",
      "outputs": [],
      "stateMutability": "nonpayable",
      "type": "function"
    },
    {
      "inputs": [
        {
          "internalType": "uint256",
          "name": "",
          "type": "uint256"
        }
      ],
      "name": "totalRatingByProduct",
      "outputs": [
        {
          "internalType": "uint256",
          "name": "",
          "type": "uint256"
        }
      ],
      "stateMutability": "view",
      "type": "function"
    }
  ],
  "bytecode": "0x6080604052348015600e575f5ffd5b5061362b8061001c5f395ff3fe6080604052600436106101b6575f3560e01c8063b1b08f6d116100eb578063dfa505ed11610089578063e9e13afc11610063578063e9e13afc14610704578063efef39a114610740578063f8215fc51461075c578063fd84cb9714610798576101b6565b8063dfa505ed14610658578063e0f6ef871461069a578063e8a59cd8146106c4576101b6565b8063c36ccdac116100c5578063c36ccdac14610568578063c95e3ea3146105a4578063d880657f146105e0578063dcfe3e081461061c576101b6565b8063b1b08f6d146104b4578063be1be201146104f0578063c24270e31461052c576101b6565b806333ffd389116101585780637acc0b20116101325780637acc0b20146103de578063804ee2b514610420578063a1b141d414610448578063a85c38ef14610472576101b6565b806333ffd3891461033e578063368001721461037a57806374a5b693146103b6576101b6565b80631b20335d116101945780631b20335d1461026e57806322d7fac8146102965780632453ffa8146102d25780632f6db1cc146102fc576101b6565b806308dd9b52146101ba57806316af411c146101f657806317b7e03e14610232575b5f5ffd5b3480156101c5575f5ffd5b506101e060048036038101906101db919061235d565b6107c0565b6040516101ed91906123aa565b60405180910390f35b348015610201575f5ffd5b5061021c600480360381019061021791906123c3565b6107eb565b6040516102299190612408565b60405180910390f35b34801561023d575f5ffd5b50610258600480360381019061025391906123c3565b610808565b60405161026591906123aa565b60405180910390f35b348015610279575f5ffd5b50610294600480360381019061028f9190612482565b610854565b005b3480156102a1575f5ffd5b506102bc60048036038101906102b79190612500565b610b42565b6040516102c991906125e2565b60405180910390f35b3480156102dd575f5ffd5b506102e6610bd5565b6040516102f391906123aa565b60405180910390f35b348015610307575f5ffd5b50610322600480360381019061031d9190612602565b610bdb565b60405161033597969594939291906126da565b60405180910390f35b348015610349575f5ffd5b50610364600480360381019061035f91906123c3565b610cf1565b60405161037191906123aa565b60405180910390f35b348015610385575f5ffd5b506103a0600480360381019061039b9190612602565b610d06565b6040516103ad91906123aa565b60405180910390f35b3480156103c1575f5ffd5b506103dc60048036038101906103d79190612778565b610d31565b005b3480156103e9575f5ffd5b5061040460048036038101906103ff91906123c3565b6111b3565b60405161041797969594939291906127e9565b60405180910390f35b34801561042b575f5ffd5b506104466004803603810190610441919061285d565b6112a2565b005b348015610453575f5ffd5b5061045c6115db565b60405161046991906123aa565b60405180910390f35b34801561047d575f5ffd5b50610498600480360381019061049391906123c3565b6115e0565b6040516104ab97969594939291906128ce565b60405180910390f35b3480156104bf575f5ffd5b506104da60048036038101906104d591906123c3565b611663565b6040516104e791906123aa565b60405180910390f35b3480156104fb575f5ffd5b50610516600480360381019061051191906123c3565b611678565b60405161052391906123aa565b60405180910390f35b348015610537575f5ffd5b50610552600480360381019061054d919061235d565b611695565b60405161055f91906123aa565b60405180910390f35b348015610573575f5ffd5b5061058e60048036038101906105899190612500565b6116c0565b60405161059b91906123aa565b60405180910390f35b3480156105af575f5ffd5b506105ca60048036038101906105c59190612500565b6116d5565b6040516105d791906123aa565b60405180910390f35b3480156105eb575f5ffd5b5061060660048036038101906106019190612500565b61171e565b60405161061391906123aa565b60405180910390f35b348015610627575f5ffd5b50610642600480360381019061063d91906123c3565b611767565b60405161064f91906123aa565b60405180910390f35b348015610663575f5ffd5b5061067e60048036038101906106799190612602565b611784565b60405161069197969594939291906126da565b60405180910390f35b3480156106a5575f5ffd5b506106ae61193f565b6040516106bb91906123aa565b60405180910390f35b3480156106cf575f5ffd5b506106ea60048036038101906106e591906123c3565b611945565b6040516106fb95949392919061293b565b60405180910390f35b34801561070f575f5ffd5b5061072a60048036038101906107259190612500565b611aae565b60405161073791906125e2565b60405180910390f35b61075a600480360381019061075591906123c3565b611b41565b005b348015610767575f5ffd5b50610782600480360381019061077d91906123c3565b611f5a565b60405161078f91906125e2565b60405180910390f35b3480156107a3575f5ffd5b506107be60048036038101906107b991906123c3565b611fc1565b005b6008602052815f5260405f2081815481106107d9575f80fd5b905f5260205f20015f91509150505481565b600b602052805f5260405f205f915054906101000a900460ff1681565b5f5f600d5f8481526020019081526020015f205490505f810361082e575f91505061084f565b80600c5f8581526020019081526020015f205461084b91906129f4565b9150505b919050565b5f8484905011610899576040517f08c379a000000000000000000000000000000000000000000000000000000000815260040161089090612a6e565b60405180910390fd5b5f60045f3373ffffffffffffffffffffffffffffffffffffffff1673ffffffffffffffffffffffffffffffffffffffff1681526020019081526020015f205414610918576040517f08c379a000000000000000000000000000000000000000000000000000000000815260040161090f90612ad6565b60405180910390fd5b5f5f81548092919061092990612af4565b91905055506040518060a001604052805f5481526020013373ffffffffffffffffffffffffffffffffffffffff16815260200185858080601f0160208091040260200160405190810160405280939291908181526020018383808284375f81840152601f19601f82011690508083019250505050505050815260200183838080601f0160208091040260200160405190810160405280939291908181526020018383808284375f81840152601f19601f8201169050808301925050505050505081526020016001151581525060035f5f5481526020019081526020015f205f820151815f01556020820151816001015f6101000a81548173ffffffffffffffffffffffffffffffffffffffff021916908373ffffffffffffffffffffffffffffffffffffffff1602179055506040820151816002019081610a6a9190612d65565b506060820151816003019081610a809190612d65565b506080820151816004015f6101000a81548160ff0219169083151502179055509050505f5460045f3373ffffffffffffffffffffffffffffffffffffffff1673ffffffffffffffffffffffffffffffffffffffff1681526020019081526020015f20819055503373ffffffffffffffffffffffffffffffffffffffff165f547fc743f35e27b43c7f3c74a9d0c8c8b236ad11df8cd8b7eda759dd838b4fc2e54b86868686604051610b349493929190612e6e565b60405180910390a350505050565b606060095f8373ffffffffffffffffffffffffffffffffffffffff1673ffffffffffffffffffffffffffffffffffffffff1681526020019081526020015f20805480602002602001604051908101604052809291908181526020018280548015610bc957602002820191905f5260205f20905b815481526020019060010190808311610bb5575b50505050509050919050565b60025481565b600a602052815f5260405f208181548110610bf4575f80fd5b905f5260205f2090600602015f9150915050805f015490806001015490806002015490806003015f9054906101000a900473ffffffffffffffffffffffffffffffffffffffff16908060030160149054906101000a900460ff1690806004018054610c5e90612b95565b80601f0160208091040260200160405190810160405280929190818152602001828054610c8a90612b95565b8015610cd55780601f10610cac57610100808354040283529160200191610cd5565b820191905f5260205f20905b815481529060010190602001808311610cb857829003601f168201915b505050505090806005015f9054906101000a900460ff16905087565b600c602052805f5260405f205f915090505481565b6006602052815f5260405f208181548110610d1f575f80fd5b905f5260205f20015f91509150505481565b5f60075f8681526020019081526020015f2090508060040160029054906101000a900460ff16610d96576040517f08c379a0000000000000000000000000000000000000000000000000000000008152600401610d8d90612ef1565b60405180910390fd5b806002015f9054906101000a900473ffffffffffffffffffffffffffffffffffffffff1673ffffffffffffffffffffffffffffffffffffffff163373ffffffffffffffffffffffffffffffffffffffff1614610e27576040517f08c379a0000000000000000000000000000000000000000000000000000000008152600401610e1e90612f59565b60405180910390fd5b806004015f9054906101000a900460ff16610e77576040517f08c379a0000000000000000000000000000000000000000000000000000000008152600401610e6e90612fc1565b60405180910390fd5b600b5f8681526020019081526020015f205f9054906101000a900460ff1615610ed5576040517f08c379a0000000000000000000000000000000000000000000000000000000008152600401610ecc90613029565b60405180910390fd5b60018460ff1610158015610eed575060058460ff1611155b610f2c576040517f08c379a0000000000000000000000000000000000000000000000000000000008152600401610f2390613091565b60405180910390fd5b6001600b5f8781526020019081526020015f205f6101000a81548160ff0219169083151502179055505f816001015490505f6001600a5f8481526020019081526020015f2080549050610f7f91906130af565b9050600a5f8381526020019081526020015f206040518060e001604052808381526020018981526020018481526020013373ffffffffffffffffffffffffffffffffffffffff1681526020018860ff16815260200187878080601f0160208091040260200160405190810160405280939291908181526020018383808284375f81840152601f19601f82011690508083019250505050505050815260200160011515815250908060018154018082558091505060019003905f5260205f2090600602015f909190919091505f820151815f015560208201518160010155604082015181600201556060820151816003015f6101000a81548173ffffffffffffffffffffffffffffffffffffffff021916908373ffffffffffffffffffffffffffffffffffffffff16021790555060808201518160030160146101000a81548160ff021916908360ff16021790555060a08201518160040190816110e29190612d65565b5060c0820151816005015f6101000a81548160ff02191690831515021790555050508560ff16600c5f8481526020019081526020015f205f82825461112791906130af565b925050819055506001600d5f8481526020019081526020015f205f82825461114f91906130af565b925050819055503373ffffffffffffffffffffffffffffffffffffffff1682827f91622f0707905f4e52181f5494c2127051c868a3d39e553179149c85699020818989896040516111a2939291906130e2565b60405180910390a450505050505050565b6005602052805f5260405f205f91509050805f015490806001015490806002015f9054906101000a900473ffffffffffffffffffffffffffffffffffffffff169080600301549080600401549080600501805461120f90612b95565b80601f016020809104026020016040519081016040528092919081815260200182805461123b90612b95565b80156112865780601f1061125d57610100808354040283529160200191611286565b820191905f5260205f20905b81548152906001019060200180831161126957829003601f168201915b505050505090806006015f9054906101000a900460ff16905087565b5f60045f3373ffffffffffffffffffffffffffffffffffffffff1673ffffffffffffffffffffffffffffffffffffffff1681526020019081526020015f205403611321576040517f08c379a00000000000000000000000000000000000000000000000000000000081526004016113189061315c565b60405180910390fd5b5f8411611363576040517f08c379a000000000000000000000000000000000000000000000000000000000815260040161135a906131c4565b60405180910390fd5b5f83116113a5576040517f08c379a000000000000000000000000000000000000000000000000000000000815260040161139c9061322c565b60405180910390fd5b5f60045f3373ffffffffffffffffffffffffffffffffffffffff1673ffffffffffffffffffffffffffffffffffffffff1681526020019081526020015f2054905060015f8154809291906113f890612af4565b91905055506040518060e0016040528060015481526020018281526020013373ffffffffffffffffffffffffffffffffffffffff16815260200186815260200185815260200184848080601f0160208091040260200160405190810160405280939291908181526020018383808284375f81840152601f19601f8201169050808301925050505050505081526020016001151581525060055f60015481526020019081526020015f205f820151815f0155602082015181600101556040820151816002015f6101000a81548173ffffffffffffffffffffffffffffffffffffffff021916908373ffffffffffffffffffffffffffffffffffffffff160217905550606082015181600301556080820151816004015560a08201518160050190816115229190612d65565b5060c0820151816006015f6101000a81548160ff02191690831515021790555090505060065f8281526020019081526020015f20600154908060018154018082558091505060019003905f5260205f20015f90919091909150553373ffffffffffffffffffffffffffffffffffffffff16816001547f7e4e4e59f635bb7e76199cf721251e62afde9e801f92b089adc5411720966bb7888888886040516115cc949392919061324a565b60405180910390a45050505050565b5f5481565b6007602052805f5260405f205f91509050805f015490806001015490806002015f9054906101000a900473ffffffffffffffffffffffffffffffffffffffff1690806003015490806004015f9054906101000a900460ff16908060040160019054906101000a900460ff16908060040160029054906101000a900460ff16905087565b600d602052805f5260405f205f915090505481565b5f60065f8381526020019081526020015f20805490509050919050565b6009602052815f5260405f2081815481106116ae575f80fd5b905f5260205f20015f91509150505481565b6004602052805f5260405f205f915090505481565b5f60085f8373ffffffffffffffffffffffffffffffffffffffff1673ffffffffffffffffffffffffffffffffffffffff1681526020019081526020015f20805490509050919050565b5f60095f8373ffffffffffffffffffffffffffffffffffffffff1673ffffffffffffffffffffffffffffffffffffffff1681526020019081526020015f20805490509050919050565b5f600a5f8381526020019081526020015f20805490509050919050565b5f5f5f5f5f60605f5f600a5f8b81526020019081526020015f2089815481106117b0576117af613288565b5b905f5260205f2090600602016040518060e00160405290815f82015481526020016001820154815260200160028201548152602001600382015f9054906101000a900473ffffffffffffffffffffffffffffffffffffffff1673ffffffffffffffffffffffffffffffffffffffff1673ffffffffffffffffffffffffffffffffffffffff1681526020016003820160149054906101000a900460ff1660ff1660ff16815260200160048201805461186690612b95565b80601f016020809104026020016040519081016040528092919081815260200182805461189290612b95565b80156118dd5780601f106118b4576101008083540402835291602001916118dd565b820191905f5260205f20905b8154815290600101906020018083116118c057829003601f168201915b50505050508152602001600582015f9054906101000a900460ff1615151515815250509050805f015181602001518260400151836060015184608001518560a001518660c0015197509750975097509750975097505092959891949750929550565b60015481565b6003602052805f5260405f205f91509050805f015490806001015f9054906101000a900473ffffffffffffffffffffffffffffffffffffffff169080600201805461198f90612b95565b80601f01602080910402602001604051908101604052809291908181526020018280546119bb90612b95565b8015611a065780601f106119dd57610100808354040283529160200191611a06565b820191905f5260205f20905b8154815290600101906020018083116119e957829003601f168201915b505050505090806003018054611a1b90612b95565b80601f0160208091040260200160405190810160405280929190818152602001828054611a4790612b95565b8015611a925780601f10611a6957610100808354040283529160200191611a92565b820191905f5260205f20905b815481529060010190602001808311611a7557829003601f168201915b505050505090806004015f9054906101000a900460ff16905085565b606060085f8373ffffffffffffffffffffffffffffffffffffffff1673ffffffffffffffffffffffffffffffffffffffff1681526020019081526020015f20805480602002602001604051908101604052809291908181526020018280548015611b3557602002820191905f5260205f20905b815481526020019060010190808311611b21575b50505050509050919050565b5f60055f8381526020019081526020015f209050806006015f9054906101000a900460ff16611ba5576040517f08c379a0000000000000000000000000000000000000000000000000000000008152600401611b9c906132ff565b60405180910390fd5b5f816004015411611beb576040517f08c379a0000000000000000000000000000000000000000000000000000000008152600401611be290613367565b60405180910390fd5b80600301543414611c31576040517f08c379a0000000000000000000000000000000000000000000000000000000008152600401611c28906133cf565b60405180910390fd5b806002015f9054906101000a900473ffffffffffffffffffffffffffffffffffffffff1673ffffffffffffffffffffffffffffffffffffffff163373ffffffffffffffffffffffffffffffffffffffff1603611cc2576040517f08c379a0000000000000000000000000000000000000000000000000000000008152600401611cb990613437565b60405180910390fd5b806004015f815480929190611cd690613455565b919050555060025f815480929190611ced90612af4565b91905055506040518060e0016040528060025481526020018381526020013373ffffffffffffffffffffffffffffffffffffffff1681526020013481526020015f151581526020015f151581526020016001151581525060075f60025481526020019081526020015f205f820151815f0155602082015181600101556040820151816002015f6101000a81548173ffffffffffffffffffffffffffffffffffffffff021916908373ffffffffffffffffffffffffffffffffffffffff160217905550606082015181600301556080820151816004015f6101000a81548160ff02191690831515021790555060a08201518160040160016101000a81548160ff02191690831515021790555060c08201518160040160026101000a81548160ff02191690831515021790555090505060085f3373ffffffffffffffffffffffffffffffffffffffff1673ffffffffffffffffffffffffffffffffffffffff1681526020019081526020015f20600254908060018154018082558091505060019003905f5260205f20015f909190919091505560095f826002015f9054906101000a900473ffffffffffffffffffffffffffffffffffffffff1673ffffffffffffffffffffffffffffffffffffffff1673ffffffffffffffffffffffffffffffffffffffff1681526020019081526020015f20600254908060018154018082558091505060019003905f5260205f20015f90919091909150553373ffffffffffffffffffffffffffffffffffffffff16826002547fab45dcf8e0b46d291b98e53c6f1c6774dc32e2436543291f7bfbb3e3c48b2f9f34604051611f4e91906123aa565b60405180910390a45050565b606060065f8381526020019081526020015f20805480602002602001604051908101604052809291908181526020018280548015611fb557602002820191905f5260205f20905b815481526020019060010190808311611fa1575b50505050509050919050565b5f60075f8381526020019081526020015f2090508060040160029054906101000a900460ff16612026576040517f08c379a000000000000000000000000000000000000000000000000000000000815260040161201d90612ef1565b60405180910390fd5b806002015f9054906101000a900473ffffffffffffffffffffffffffffffffffffffff1673ffffffffffffffffffffffffffffffffffffffff163373ffffffffffffffffffffffffffffffffffffffff16146120b7576040517f08c379a00000000000000000000000000000000000000000000000000000000081526004016120ae906134c6565b60405180910390fd5b8060040160019054906101000a900460ff1615612109576040517f08c379a00000000000000000000000000000000000000000000000000000000081526004016121009061352e565b60405180910390fd5b5f60055f836001015481526020019081526020015f209050806006015f9054906101000a900460ff16612171576040517f08c379a0000000000000000000000000000000000000000000000000000000008152600401612168906132ff565b60405180910390fd5b6001826004015f6101000a81548160ff02191690831515021790555060018260040160016101000a81548160ff0219169083151502179055505f816002015f9054906101000a900473ffffffffffffffffffffffffffffffffffffffff1673ffffffffffffffffffffffffffffffffffffffff1683600301546040516121f690613579565b5f6040518083038185875af1925050503d805f8114612230576040519150601f19603f3d011682016040523d82523d5f602084013e612235565b606091505b5050905080612279576040517f08c379a0000000000000000000000000000000000000000000000000000000008152600401612270906135d7565b60405180910390fd5b3373ffffffffffffffffffffffffffffffffffffffff168360010154857f8ab4944d5c96c381600c6e0ae488448692d8e3f9cb1da02cb23f55f6372468c160405160405180910390a450505050565b5f5ffd5b5f5ffd5b5f73ffffffffffffffffffffffffffffffffffffffff82169050919050565b5f6122f9826122d0565b9050919050565b612309816122ef565b8114612313575f5ffd5b50565b5f8135905061232481612300565b92915050565b5f819050919050565b61233c8161232a565b8114612346575f5ffd5b50565b5f8135905061235781612333565b92915050565b5f5f60408385031215612373576123726122c8565b5b5f61238085828601612316565b925050602061239185828601612349565b9150509250929050565b6123a48161232a565b82525050565b5f6020820190506123bd5f83018461239b565b92915050565b5f602082840312156123d8576123d76122c8565b5b5f6123e584828501612349565b91505092915050565b5f8115159050919050565b612402816123ee565b82525050565b5f60208201905061241b5f8301846123f9565b92915050565b5f5ffd5b5f5ffd5b5f5ffd5b5f5f83601f84011261244257612441612421565b5b8235905067ffffffffffffffff81111561245f5761245e612425565b5b60208301915083600182028301111561247b5761247a612429565b5b9250929050565b5f5f5f5f6040858703121561249a576124996122c8565b5b5f85013567ffffffffffffffff8111156124b7576124b66122cc565b5b6124c38782880161242d565b9450945050602085013567ffffffffffffffff8111156124e6576124e56122cc565b5b6124f28782880161242d565b925092505092959194509250565b5f60208284031215612515576125146122c8565b5b5f61252284828501612316565b91505092915050565b5f81519050919050565b5f82825260208201905092915050565b5f819050602082019050919050565b61255d8161232a565b82525050565b5f61256e8383612554565b60208301905092915050565b5f602082019050919050565b5f6125908261252b565b61259a8185612535565b93506125a583612545565b805f5b838110156125d55781516125bc8882612563565b97506125c78361257a565b9250506001810190506125a8565b5085935050505092915050565b5f6020820190508181035f8301526125fa8184612586565b905092915050565b5f5f60408385031215612618576126176122c8565b5b5f61262585828601612349565b925050602061263685828601612349565b9150509250929050565b612649816122ef565b82525050565b5f60ff82169050919050565b6126648161264f565b82525050565b5f81519050919050565b5f82825260208201905092915050565b8281835e5f83830152505050565b5f601f19601f8301169050919050565b5f6126ac8261266a565b6126b68185612674565b93506126c6818560208601612684565b6126cf81612692565b840191505092915050565b5f60e0820190506126ed5f83018a61239b565b6126fa602083018961239b565b612707604083018861239b565b6127146060830187612640565b612721608083018661265b565b81810360a083015261273381856126a2565b905061274260c08301846123f9565b98975050505050505050565b6127578161264f565b8114612761575f5ffd5b50565b5f813590506127728161274e565b92915050565b5f5f5f5f606085870312156127905761278f6122c8565b5b5f61279d87828801612349565b94505060206127ae87828801612764565b935050604085013567ffffffffffffffff8111156127cf576127ce6122cc565b5b6127db8782880161242d565b925092505092959194509250565b5f60e0820190506127fc5f83018a61239b565b612809602083018961239b565b6128166040830188612640565b612823606083018761239b565b612830608083018661239b565b81810360a083015261284281856126a2565b905061285160c08301846123f9565b98975050505050505050565b5f5f5f5f60608587031215612875576128746122c8565b5b5f61288287828801612349565b945050602061289387828801612349565b935050604085013567ffffffffffffffff8111156128b4576128b36122cc565b5b6128c08782880161242d565b925092505092959194509250565b5f60e0820190506128e15f83018a61239b565b6128ee602083018961239b565b6128fb6040830188612640565b612908606083018761239b565b61291560808301866123f9565b61292260a08301856123f9565b61292f60c08301846123f9565b98975050505050505050565b5f60a08201905061294e5f83018861239b565b61295b6020830187612640565b818103604083015261296d81866126a2565b9050818103606083015261298181856126a2565b905061299060808301846123f9565b9695505050505050565b7f4e487b71000000000000000000000000000000000000000000000000000000005f52601260045260245ffd5b7f4e487b71000000000000000000000000000000000000000000000000000000005f52601160045260245ffd5b5f6129fe8261232a565b9150612a098361232a565b925082612a1957612a1861299a565b5b828204905092915050565b7f53746f7265206e616d65207265717569726564000000000000000000000000005f82015250565b5f612a58601383612674565b9150612a6382612a24565b602082019050919050565b5f6020820190508181035f830152612a8581612a4c565b9050919050565b7f53746f726520616c7265616479206578697374730000000000000000000000005f82015250565b5f612ac0601483612674565b9150612acb82612a8c565b602082019050919050565b5f6020820190508181035f830152612aed81612ab4565b9050919050565b5f612afe8261232a565b91507fffffffffffffffffffffffffffffffffffffffffffffffffffffffffffffffff8203612b3057612b2f6129c7565b5b600182019050919050565b7f4e487b71000000000000000000000000000000000000000000000000000000005f52604160045260245ffd5b7f4e487b71000000000000000000000000000000000000000000000000000000005f52602260045260245ffd5b5f6002820490506001821680612bac57607f821691505b602082108103612bbf57612bbe612b68565b5b50919050565b5f819050815f5260205f209050919050565b5f6020601f8301049050919050565b5f82821b905092915050565b5f60088302612c217fffffffffffffffffffffffffffffffffffffffffffffffffffffffffffffffff82612be6565b612c2b8683612be6565b95508019841693508086168417925050509392505050565b5f819050919050565b5f612c66612c61612c5c8461232a565b612c43565b61232a565b9050919050565b5f819050919050565b612c7f83612c4c565b612c93612c8b82612c6d565b848454612bf2565b825550505050565b5f5f905090565b612caa612c9b565b612cb5818484612c76565b505050565b5b81811015612cd857612ccd5f82612ca2565b600181019050612cbb565b5050565b601f821115612d1d57612cee81612bc5565b612cf784612bd7565b81016020851015612d06578190505b612d1a612d1285612bd7565b830182612cba565b50505b505050565b5f82821c905092915050565b5f612d3d5f1984600802612d22565b1980831691505092915050565b5f612d558383612d2e565b9150826002028217905092915050565b612d6e8261266a565b67ffffffffffffffff811115612d8757612d86612b3b565b5b612d918254612b95565b612d9c828285612cdc565b5f60209050601f831160018114612dcd575f8415612dbb578287015190505b612dc58582612d4a565b865550612e2c565b601f198416612ddb86612bc5565b5f5b82811015612e0257848901518255600182019150602085019450602081019050612ddd565b86831015612e1f5784890151612e1b601f891682612d2e565b8355505b6001600288020188555050505b505050505050565b828183375f83830152505050565b5f612e4d8385612674565b9350612e5a838584612e34565b612e6383612692565b840190509392505050565b5f6040820190508181035f830152612e87818688612e42565b90508181036020830152612e9c818486612e42565b905095945050505050565b7f4f72646572206e6f7420666f756e6400000000000000000000000000000000005f82015250565b5f612edb600f83612674565b9150612ee682612ea7565b602082019050919050565b5f6020820190508181035f830152612f0881612ecf565b9050919050565b7f4f6e6c792062757965722063616e2072657669657700000000000000000000005f82015250565b5f612f43601583612674565b9150612f4e82612f0f565b602082019050919050565b5f6020820190508181035f830152612f7081612f37565b9050919050565b7f44656c6976657279206e6f7420636f6e6669726d6564000000000000000000005f82015250565b5f612fab601683612674565b9150612fb682612f77565b602082019050919050565b5f6020820190508181035f830152612fd881612f9f565b9050919050565b7f416c7265616479207265766965776564000000000000000000000000000000005f82015250565b5f613013601083612674565b915061301e82612fdf565b602082019050919050565b5f6020820190508181035f83015261304081613007565b9050919050565b7f526174696e67206d75737420626520312e2e35000000000000000000000000005f82015250565b5f61307b601383612674565b915061308682613047565b602082019050919050565b5f6020820190508181035f8301526130a88161306f565b9050919050565b5f6130b98261232a565b91506130c48361232a565b92508282019050808211156130dc576130db6129c7565b5b92915050565b5f6040820190506130f55f83018661265b565b8181036020830152613108818486612e42565b9050949350505050565b7f4372656174652073746f726520666972737400000000000000000000000000005f82015250565b5f613146601283612674565b915061315182613112565b602082019050919050565b5f6020820190508181035f8301526131738161313a565b9050919050565b7f5072696365206d757374206265203e20300000000000000000000000000000005f82015250565b5f6131ae601183612674565b91506131b98261317a565b602082019050919050565b5f6020820190508181035f8301526131db816131a2565b9050919050565b7f53746f636b206d757374206265203e20300000000000000000000000000000005f82015250565b5f613216601183612674565b9150613221826131e2565b602082019050919050565b5f6020820190508181035f8301526132438161320a565b9050919050565b5f60608201905061325d5f83018761239b565b61326a602083018661239b565b818103604083015261327d818486612e42565b905095945050505050565b7f4e487b71000000000000000000000000000000000000000000000000000000005f52603260045260245ffd5b7f50726f64756374206e6f7420666f756e640000000000000000000000000000005f82015250565b5f6132e9601183612674565b91506132f4826132b5565b602082019050919050565b5f6020820190508181035f830152613316816132dd565b9050919050565b7f4f7574206f662073746f636b00000000000000000000000000000000000000005f82015250565b5f613351600c83612674565b915061335c8261331d565b602082019050919050565b5f6020820190508181035f83015261337e81613345565b9050919050565b7f496e636f727265637420707269636500000000000000000000000000000000005f82015250565b5f6133b9600f83612674565b91506133c482613385565b602082019050919050565b5f6020820190508181035f8301526133e6816133ad565b9050919050565b7f53656c6c65722063616e6e6f7420627579206f776e2070726f647563740000005f82015250565b5f613421601d83612674565b915061342c826133ed565b602082019050919050565b5f6020820190508181035f83015261344e81613415565b9050919050565b5f61345f8261232a565b91505f8203613471576134706129c7565b5b600182039050919050565b7f4f6e6c792062757965722063616e20636f6e6669726d000000000000000000005f82015250565b5f6134b0601683612674565b91506134bb8261347c565b602082019050919050565b5f6020820190508181035f8301526134dd816134a4565b9050919050565b7f46756e647320616c72656164792072656c6561736564000000000000000000005f82015250565b5f613518601683612674565b9150613523826134e4565b602082019050919050565b5f6020820190508181035f8301526135458161350c565b9050919050565b5f81905092915050565b50565b5f6135645f8361354c565b915061356f82613556565b5f82019050919050565b5f61358382613559565b9150819050919050565b7f5472616e73666572206661696c656400000000000000000000000000000000005f82015250565b5f6135c1600f83612674565b91506135cc8261358d565b602082019050919050565b5f6020820190508181035f8301526135ee816135b5565b905091905056fea2646970667358221220fbb4d0ee9b842740b405246565cf5b6a85bd4891f966bc457bb43ee52f58fe9e64736f6c634300081c0033",
  "linkReferences": {},
  "deployedLinkReferences": {},
  "immutableReferences": {},
  "inputSourceName": "project/contracts/Marketplace.sol",
  "buildInfoId": "solc-0_8_28-ab8b665fbad6b6ba24ad0609893f235efc859222"
}